:4000000080673030303030307e3030307e3030307e3030307e3030307e3030307e3030307e3030307e3030307d04c47e7d04c57e7e3030307e3030307e3030307e3030308a
:400040007e3030307e3030307e3030307e3030307e3030307e3030307e3030307e3030307d09ec7e7e303030711062fa0062e38770ef50202850402850602862e33841fe26
:40008000fb50804e62e33855f80055f900711062e00270ef62e338627105627505627905627d0562d10750004e62d30762d00062d50062d40071c07c045962d0015003575c
:4000c000520828530c18750900284b510c800475090062e300082860d574a04b187509000828530c187509000828a01c530b1875090008283f0c470cffb0065dd57460d5b5
:40010000187a0bbfeb8fc9187509000828530b50003f0c470cffb0085dd57460d550007a0bbfef188faa18711043e32070ef62e000711062e00343e78070ef62e2007c0b8e
:40014000a98fff50107f3030303030303030303030303030303030303030303030303030303030303030303030303030303030303030303030303030303030303030303089
:40018000303030303030303030303030303030303030303030303030303030303030303057656c636f6d652e005479706520696e2074686520666f726d207765206c696b1b
:4001c000652028492073776561722049276c6c2066697820746869732900522072656164732066726f6d2061206d656d6f7279206c6f636174696f6e00522023205858206a
:4002000041204d617279206861642061206c6974746c65206c616d622e2e2e00506c6561736520666f726d617420796f7572207265717565737420696e2074686520666f9a
:400240006c6c6f77696e6720666f726d61743a200061736369692f686578206661696c0068657800617363696900616464726573733a200072616d206661696c0072616d7c
:4002800020320072616d203100722f77206661696c007772697465007265616400537472696e672046756c6c000d0a003e005468697320737472696e672077617320696e90
:4002c00076616c6964002f002d002e002b0029002a006028660063056500e600e700d600b030b100b200b333b433b500b628b855b900ba10bb33bc33bd00be00c000c1007c
:40030000c220c333c433c500c600c855c900ca30cb33cc33cd00ce006c006d006e006f00ff2c052de12e40281d29012a4761006900600062006733683363006600d100d37b
:4003400000d000d200e172e200df26de01dd00e700ff0f7e70ef62000071106200006201ff70ef6203ff620200711062020062030070ef6201006204a071106204a0620545
:40038000ff70ef6207bf620640711062060062070070ef62050062080071106208ff62090070ef620b00620a807110620a00620b0070ef620900620c007110620c00620d90
:4003c0000070ef620f00620e007110620e00620f0070ef620d00621000711062100062110070ef621300621200711062120062130070ef621100621400711062140062154d
:400400000070ef621700621600711062160062170070ef621500621800711062180062190070ef621b00621a007110621a00621b0070ef621900621c007110621c00621d8c
:400440000070ef621f00621e007110621e00621f0070ef621d0070ef7f5500005501ff5502007c04697c03547f1070ef500067500257c67c0484500167500357217c048482
:4004800070ef207f380210084f56fc00d00456fc01182070ef62e30010082839ffa01f4f48fc01a003711054fd18207509001008284f59fd610018207509008fd738fc704c
:4004c0003f71c07f7e7e43e10443e1087f41e1fb41e1f77f71102101a00743281070ef7f4128ef70ef7f2901602b602f7f412bfe412ffe7f60297f5d2b7f5d2e7f5d2f7f72
:40050000210171103901a0064128ef800443281070ef7f082101a00643e108800441e1f7182102a00643e104800441e1fb7f30313233343536373839414243444546086730
:40054000676767210fffe7900f18210fffe090087f4b9fea5b9fe77f492b10affc60297f492f08affc5d2e7f5d2f082108b00418800b5d2e4b1821a0b0034b7f50007f5d47
:400580002f21e8082108b0071829014b80071821e04b5d2e7f70bf60d35200a0069fb9758ff8703f71c07f70bf62d3074f52fba01a7bfb52fc59fd60d35200492b10affcfd
:4005c00060294f62d30777fd8fe4703f71c07f4f3dfa00b0063dfb00a01d1052fc59fd28492b10affc60292007fd010ffc0017fb011ffa008fdb703f71c07f081028a00bcc
:400600009f56201875dff5748ff238fe7f500d9f47500a9f437f081028b00420187f9044201875dff2748fef303132333435363738394142434445460867676767210fff38
:40064000e7902118210fffe0901a7f4b9fea5b9fe77f70bf60d35200a0069008758ff8703f71c07f90650867676767210f903b18210f40404090337f90510867676767218d
:400680000f900918210f40404090017f0862d0002600805100600818210f29102a006008530040218f530060087f0862d0002600802e00205100600818210f29302a00603f
:4006c0000853004021af530060087f0862d000260080510060082601f051017110600870ef2e004051006008401057ff2e00505100600840405d08082600c051006008403b
:4007000040402e00505100600840402600c051006008182108a00479bfd3202e017f51017110600870ef187f62d0002601802e017f2602805101711060085102600970ef6f
:4007400050fa906750fa906350039f405052905b50039f3890639061905f50039f2e505a904950029f26505a904150089f0a505a903950019f02505a903150069efa500eed
:400780009ef6502c9ef250089eee500c9eea50039ee6505a90157f80c094d4210310fff74f03ff209ed2703f71c07f900c78bffc7f08193a7c010101010871105de070efcc
:4007c00021073905d006ffe978bffe187f7f800462ddfe43de017f62ddfe7f62d00026037f62d00026057f43d6027f41defe7f41d6fd7f62d0004f5105470580bffa2e055e
:400800008052fd642901530460d855030052f953031052fa0852fb0852fc08930c38fd20510448f901b00a49d701b005912e80039093703f71c07f62d0004f510547058042
:40084000bffa2e058052fd64550300530460d852f953031077fa52fa0852fb0852fc08930638fd20510448f901b00a49d701bfc190ea8003904f703f71c07f62d0004f5164
:4008800005470580bffa2e058052fd64550300530460d852f9530310500077fad002740852fa0852fb0852fc0892e938fc20510448f901b00a49d701bf7790a080039005e3
:4008c000703f71c07f62d00060d853045dd9210fa01162d90249d704b00562d7047f62d7007f510490767f62d000085503005105470580bffa186479c003290160d853047f
:4009000049d904a01c62d90262d7005dd749d701affa49d702b00755030150017f50007f50007f62d000085503005105470580bffa1841defe49d701b0206479c003290164
:4009400060d8530462d9015dd749d701affa49d702b00755030150017f50007f62d00060d8530462d9017f62d00060d841defe5dd949d904a01955030062d7045dd749d7dc
:4009800001affa49d702b0075503ff50017f500053037f62d0002603fe49d701bff649d702b0042e03017f62d00041defe49d904a028550300085dd749d708a00462d700dc
:4009c00049d701affc1821ffa00a5dd862d7105503017f5dd85503007f5503ff7f49d904a00462d7007f62d00051037f08105dd30849d708a01849d901b02f49d702b01e68
:400a0000470401b02e80a71860d320187e2e0580470401b02d809d1860d320187e62d70026057f1860d320187e26057f1860d320187e2e05802605fb62d7001860d3201846
:400a40007e470304b0147a06c04f3c0600a00380062e030480042603fb2e0510510760d358085dd8703f71805400703f71007608470304b00a62d7101860d320187e26039f
:400a8000fb2605f82e05012e0504260303a00a26057f1860d320187e62d70026057f1860d320187e62d7101860d320187e2605bf2e058049d702b04c500408510960d35802
:400ac0000a703f71805200703f710060d87a0bc00e760a80011860d71860d320187e26058f2e05402e0510260303a00b1826057f1860d320187e1862d70026057f1860d3ae
:400b000020187e760b7a0ad0037a0962d70026057f26058f2e05402e05201860d320187e26057f1860d320187e104f79085dde0841defe62d0002603fb52fc530752fd53b5
:400b40000852fb53063901a008c00626058f80092e030426058f8001182101a00443de011820703f71c07f62d000104f79085dde0841defe52fc530952fd530a52fb530b62
:400b80007a0b2605f0182101a00443de011820703f71c07f7f62d00051057f62d0002605f87f62d00026058f7f107c07cd7c07db207101107c07d07c072850007c04e62005
:400bc00062d00155160055150062d00155000055015555025555035555045555055555065555075580409041906662d0013c1d00a01410500057007c079b500008505b5ca8
:400c0000187c065220914362d0013c1c00a0171050020850ae5c187c05fb50010850a95c187c05fb208fc08fff1050010850a05c187c05fb7c060d50010850a95c187c05dc
:400c4000fb7c060d50020850ac5c187c05fb207f62d001551000550f0062d001551d0080de107c05682062d001531a800b107c05682062d001531a62d0013c1a00afef6280
:400c8000d0015110114e510f31801980d09f62d0013c1a0db01f1050020850a95c187c05fb50020850a95c187c05fb2062d001551d01808b62d0013c1a08a0063c1a7fb002
:400cc0002462d0017a101e0f00511001cc62d001530b62d001510f090062d00160d550203f0b805b62d0015110015b62d001530b62d001510f090060d562d001511a62d06c
:400d0000013f0b62d0015110015b62d001530b62d001510f090062d00160d43e0b107c05582062d00176100e0f00801310500208509d5c187c05fb2062d001551d0162d0ea
:400d4000013c1d00af1c551d007f104f380662d000515b54015600005201117262d0015308520031801980c0392a08a00d3d0000b0063d0177a0178029107c060d5002085e
:400d800050985c187c05fb7c060d20802d107c060d50020850925c187c05fb7c060d20801962d001551c01107c060d50020850895c187c05fb7c060d2062d000515d54039f
:400dc0005602003d0200b0063d0330a00d3d0200b0063d0331a01d802f62d001551950107c060d50020850835c187c05fb7c060d20802d107c060d500208507d5c187c05f3
:400e0000fb7c060d208019107c060d50020850745c187c05fb7c060d2062d001551c0162d000515f62d001531162d000516062d0015312107c060d500208506a5c187c05d2
:400e4000fb50010850115c187c05957c060d2062d000516254055604005205116162d0015308520431801980c0392a08a00d3d0400b0063d0568a0178029107c060d50022b
:400e80000850645c187c05fb7c060d20806f107c060d50020850605c187c05fb7c060d20805b107c060d50020850515c187c05fb7c060d2062d001551c01804162d00151a2
:400ec00014016462d001530b62d0015113090062d00160d43e0b530c62d0015114010c62d001530a62d0015113090062d00160d5510c3f0a62d00176140e130062d00151f4
:400f000014010962d001530b62d0015113090062d001530c510b62d0011210510f318062d0015309510c31801a09cf91107c060d500008500c5c187c05957c060d2062d030
:400f400001551000550f0062d00155140055130038fa207f10500208501c5c187c05fb7c060d50010850f95c187c05fb7c060d50010850da5c187c05fb7c060d207f000caf
:400f800000eb01000008010d0013ff00303030303030303030303030303030303030303030303030303030303030303030303030303030303030303030303030303030305d
:400fc00030303030303030303030303030303030303030303030303030303030303030303030303030303030303030303030303030303030303030303030303030303030f1
:4010000030303030303030303030303030303030303030303030303030303030303030303030303030303030303030303030303030303030303030303030303030303030b0
:401040003030303030303030303030303030303030303030303030303030303030303030303030303030303030303030303030303030303030303030303030303030303070
:401080003030303030303030303030303030303030303030303030303030303030303030303030303030303030303030303030303030303030303030303030303030303030
:020000040010ea
:020000040020da
:0200000012ea02
:00000001ff
