:4000000080673030303030307e3030307e3030307e3030307e3030307e3030307d0a507e7e3030307d05a07e7e3030307d05a17e7e3030307e3030307e3030307e30303089
:400040007e3030307e3030307e3030307e3030307e3030307e3030307e3030307e3030307e3030307e303030711062fa0062e38770ef50202850402850602862e33841fe08
:40008000fb50804e62e33855f80055f900711062e00270ef62e338627105627505627905627d0562d10750004e62d30762d00062d50062d40071c07c037e62d0005002573a
:4000c000770828531c18750900284b511c800475090062e300082860d574a04b187509000828531c187509000828a01c531b1875090008283f1c471cffb0065dd57460d530
:40010000187a1bbfeb8fc9187509000828531b50003f1c471cffb0085dd57460d550007a1bbfef188faa18711070ef62e000711062e00043e78070ef62e2007c06028ffffc
:4001400050107f3030303030303030303030303030303030303030303030303030303030303030303030303030303030303030303030303030303030303030303030303030
:4001800030303030303030303030303030303030303030303030303030303030303030304672657175656e637928487a293a20200020202020202020202020202020202020
:4001c00020004d61696e202020202020202020202020002300212022102700250026002b0029012a002f002d002e006028660063056500e600e700d600b038b100b200b36d
:4002000033b433b514b600b855b900ba10bb33bc33bd00be00c000c100c220c333c433c500c600c855c900ca30cb33cc33cd00ce006c006d006e006f00ff209121d1224030
:40024000243125312644280129152ac02c212d352ec561006900600062006733683363006600d100d300d000d200e130e200df02de02dd00e700ff15c770ef620000711011
:400280006200026201fd70ef6203f562020a711062020062030070ef62010062040071106204016205fe70ef6207d0620603711062062862072870ef620528620800711016
:4002c00062087f62098070ef620b80620a007110620a00620b0070ef620900620c007110620c00620d0070ef620f00620e007110620e00620f0070ef620d0062100071101f
:4003000062100062110070ef621300621200711062120062130070ef621100621400711062140062150070ef621700621600711062160062170070ef6215006218007110dd
:4003400062180062190070ef621b00621a007110621a00621b0070ef621900621c007110621c00621d0070ef621f00621e007110621e00621f0070ef621d0070ef7f5500ed
:400380000055017f5502807c038e7c02797f1070ef500067500157d37c03a95001675002573a7c03a970ef207f380210084f56fc00d00456fc01182070ef62e3001008284e
:4003c00039ffa01f4f48fc01a003711054fd18207509001008284f59fd610018207509008fd738fc703f71c07f081028b00420187f9044201875dff2748fef303132333469
:4004000035363738394142434445460867676767210fffe7902118210fffe0901a7f4b9fea5b9fe77f70bf60d35200a0069008758ff8703f71c07f90650867676767210f0f
:40044000903b18210f40404090337f90510867676767210f900918210f40404090017f0862d0002600805100600818210f29102a006008530040218f530060087f0862d09e
:40048000002600802e00205100600818210f29302a00600853004021af530060087f0862d000260080510060082601f051017110600870ef2e004051006008401057ff2e7a
:4004c00000505100600840405d08082600c0510060084040402e00505100600840402600c051006008182108a00479bfd3202e017f51017110600870ef187f62d000260109
:40050000802e017f2602805101711060085102600970ef50fa906750fa906350039f405052905b50039f3890639061905f50039f2e505a904950029f26505a904150089f29
:400540000a505a903950019f02505a903150069efa500e9ef6502c9ef250089eee500c9eea50039ee6505a90157f80c094d4210310fff74f03ff209ed2703f71c07f900c9a
:4005800078bffc7f08193a7c010101010871105de070ef21073905d006ffe978bffe187f7e7e43e1027f41e1fd7f4323017f4123fe7f60215b60257f60225b60267f5d264e
:4005c0005c5d227f4f5d26085d22085d23084123fe71105d210862210070ef5d245d26085d205d2208520060265201602271105203602170ef52026023182038fc703f7197
:40060000c07f104f380262d0005526cf55250762d0005534e8553303107c05aa62d0005125085126207c05b262d0005133085134207c05b87c04fb500057007c056e500104
:400640000850c25c187c03e9570050017c056e50010850b15c187c03e9570050017c056e201052000852015c187c04252043e020710183d662d0003c3700a3ce5537005dfd
:4006800004210862d000532a5000210053295d04212062d000532850002100532768276e2868276e2862d000513662d000322a62d000531b62d000513562d000322962d08f
:4006c000003900b0063c1b00a19d62d00050420850c8085000080851210851220851230851240862d0007c0bb638f839ffa17862d0000626c80e25005126010162d00053f5
:400700001b62d0005125090062d000531c500008500208511c08511b087c0a611862d000533418533338fe1062d0005125085126207c05b262d0005133085134207c05b8ff
:400740002062d0005126010162d000531b62d0005125090062d000531c511b5319511c531a471a80a009551bff551cff800a62d000551b00551c0062d000511c08511b08e9
:40078000511a085119085000085001085087085090087c0aaf18531918531a18531b1838fc08511b08511a0851190850000808085014087c0e7938fc18531918531a1853ec
:4007c0001b1808511b08511a085119087c0e0e18531918531a18531b18531c62d000511d08511e08511f0851200862d000511c08511b08511a085119087c0c131862d000c2
:40080000532418532318532218532138fc500008502d085121085122085123085124087c117838fa62d000511b5401511c540010500057007c056e50010850a05c187c03ce
:40084000e9570050017c056e50010850b15c187c03e9570050017c056e201052000852015c187c04252062d000513662d000322a62d000531b62d000513562d00032296287
:40088000d0003900b1a43c1b00b19f62d000504608501c0850400850000851210851220851230851240862d0007c0bb638f83901a17862d0001626c81e25005126010162cb
:4008c000d000531b62d0005125090062d000531c500008500208511c08511b087c0a611862d000533418533338fe1062d0005125085126207c05b262d00051330851342054
:400900007c05b82062d0005126010162d000531b62d0005125090062d000531c511b5319511c531a471a80a009551bff551cff800a62d000551b00551c0062d000511c0862
:40094000511b08511a085119085000085001085087085090087c0aaf18531918531a18531b1838fc08511b08511a0851190850000808085014087c0e7938fc18531918533b
:400980001a18531b1808511b08511a085119087c0e0e18531918531a18531b18531c62d000511d08511e08511f0851200862d000511c08511b08511a085119087c0c1318ad
:4009c00062d000532418532318532218532138fc500008502d085121085122085123085124087c117838fa62d000511b5401511c540010500057007c056e50010850a05c72
:400a0000187c03e9570050017c056e50010850b15c187c03e9570050017c056e201052000852015c187c04252062d000512a08512962d000532b18532c62d0005128085142
:400a40002762d00053351853368c2a38fe208fff71c0085dd00862d0005537011860d0187e104f50003dfb80c00d37fcff77fc37fbff0dfb50c03df980c00e37faff77fa08
:400a800037f9ff0ff9003180087c0d3d186ad00c37fcff37fbff77fc0ffb006ad00c37faff37f9ff77fa0ff90020703f71c07f104f380150003df980c0067c0dd950c03d92
:400ac000f580c00c104b11044b7c0dd9318020087c0d76186ad0047c0dd96ad0084b11044b7c0dd938ff20703f71c07f104f38017c0d7638ff20703f71c07fd02052f9b0cb
:400b000006471201a01776120e13000e1400d00d761c3c1cffb006186a7d0b6c186b146a6e1c6e147d0b3e5000531c5314531353127f7c0b277a1c6e1468147d0b3e4f51f6
:400b40001c54f7511454f8511354f9511254fa18531c1860d020703f71c07f52fc531252fb531352fa531452f9531c7f7c0b27551cff6e1c6e147d0b3e7c0b276e1c7d0bab
:400b80003e52fa6a52f96ab003747f74a00450007f52fa642bfb2bfca00450047f50027f6cfa52f933f56cf96d71046ffa66f66cf571046ff67f104f5dd00862d00052fa09
:400bc0002bf66ac00852f92bf564a03d52f9531433f5531327f57f52fc13f8531252fb1bf72c1252fa1bf62c1252f9217f1bf52a126e126b132900c007a00e511234146b3c
:400c0000145000c0037473735c1860d05b20703f71c07f104f5dd00862d000511c0852f933f5085b1104531c7c0b8153144d1c7c0b814d1c53132a14a0153902a007c00ad2
:400c4000187d0b32186a7d0b6c186a7d0b797c0ba052f903f5c007117fd0098fed117fc0038fe239ffafde0852fa642bfb2bfcb00e581c7c0b5b18afd1531c7d0b1c52f6fe
:400c8000642bf72bf8afed52fc531352f87c0df1085f121452f77c0df1021254f95f1c140e1c0052f67c0df1041c5f12140e120052fb531352f87c0df105f91833f9a0032a
:400cc00050010851140c1c0e120052f77c0df1041c51140c1256f5000ff50052f67c0df1041251140df552fa531352f87c0df1041c182a1c54f951140c1250000df5531c75
:400d00000c1c52f77c0df1041251140df50e1c0052f67c0df103f55313511c0c1418471480b00b66f96b126b136b1480067439ffaf1321ffaf14531c66f97d0afb5dd00891
:400d400062d00050005313531455121066fc6cfb6b136b1451131bfa51141bf9c009531452fa1c1377fc7a12bfe3511354fa511454f91860d07f5dd00862d000511c085052
:400d800000531c53145313531256002066fc6cfb6cfa6cf96b126b136b146b1c51121bf851131bf751141bf6511c1bf5c011531c52f8141252f71c1352f61c1477fc7b001a
:400dc000bfcb511254f8511354f7511454f6511c54f518531c1860d07f37fcff77fc37fbff0ffb0037faff0ffa0037f9ff0ff9007f531460e8511360e95dea471480a00368
:400e00000213471380a003021453145deb7f104f5dd00862d00052f953136ad0047c0dd955149652f9b0182bfa2bfb2bfca04248fa80b03266fc6cfb6cfa7a148ff2551216
:400e40000076146d6ffa6ffb6ffc6e1221ffbff26b12d012b00648fc01a00b500077fc0dfb0dfa0c146cfa6b1351146d54f96ffa1860d020703f71c07f104f5dd00862d0fc
:400e80000052f560e852fc531360e95deb54f552f67c0df154f6511405f552fb60e95deb05f552f84c137c0df154f85f121452fb7c0df1041251140df60ff50052fa7c0dc0
:400ec000f105f651140df552f960e85deb05f552f7531352fc7c0df1021254f751140df60ff50052fb7c0df105f651140df552fa60e85deb05f51860d020703f71c07f10b2
:400f00004f380b52f7540252f8540352f9540452fa54053df700b0393df800b0343df900b02f3dfa00b02a62d00052fc531b52fb60d550303f1b52fc0101531b52fb0900dd
:400f400060d550003f1b52fc531b52fb531c822552fa110052f9190052f8190052f731801980d03b3df500b0363df60ab03156080162d000520273531c520373531b520428
:400f800073531a52057301015405511a09005404511b09005403511c09005402800456080052fc540152fb540062d00052f6531952f5531a471a80a009551bff551cff801f
:400fc0000a62d000551b00551c0062d000511c08511b08511a085119085202085203085204085205087c0aec38fc18531918531a18185119531b511a531c511b540a511c96
:4010000054095009130a52093180531450801a14c02862d0005201531b5200531c511b01015401511c09005400520a0130531a511c60d5511a3f1b802662d0005201531b49
:401040005200531c511b01015401511c09005400520a0157531a511c60d5511a3f1b62d00052f6531952f5531a471a80a009551bff551cff800a62d000551b00551c006298
:40108000d000511c08511b08511a085119085202085203085204085205087c0aec18540518540418540318540238fc3d0200befa3d0300bef53d0400bef03d0500beeb3db7
:4010c0000800a02062d0005201531b5200531c511b01015401511c09005400511c60d5502d3f1b62d0005201531b5200531c511b01ff5401511c09ff5400511c60d550003e
:401100003f1b52fc540752fb5406805462d0005207531b520660d43e1b54085207531b5206531c511b01015407511c0900540652015319520060d43e19531a511c60d551d4
:401140001a3f1b5201531b5200531c511b01ff5401511c09ff5400511c60d552083f1b5207130152061b00cfa462d00052fc531b52fb531c38f5207f104f381662d000529f
:40118000f8531b52f760d550003f1b3f1b0808080852f90852fa0852fb0852fc087c0bb638f83900b01b62d00055033055042e55053055060062d000551b03551c008404a0
:4011c00052f9540652fa540752fb540852fc540962d0005206531c5207531b5208531a52095319501762d000681c6e1b6e1a6e1978bff35119117f540b50001900540a52b0
:401200000953195208531a5207531b52062100531c51195413511a5412511b29805411511c5410560200560300560400560500560c00560d00560e00560f00520b111f5203
:401240000a31801980c01c62d00052f8531b52f760d550ff3f1b50fe3f1b551b00551c008362520b11e9520a3180197fd01a62d00052f8531b52f760d550ff3f1b3f1b5519
:401280001b00551c00833d520b1117520a31801980c04362d000520b1117531b52105318521153175212531652135315511b211fa00f62d00065156b166b176b1878bff3a4
:4012c00062d0005118540c5117540d5116540e5115540f80d0520b1100520a31801980c07f62d0005017130b531b52105318521153175212531652135315511b211fa00f41
:4013000062d00068186e176e166e1578bff362d0005118540c5117540d5116540e5115540f520b0101531b52105318521153175212531652135315511b211fa00f62d00061
:4013400065156b166b176b1878bff362d000511554055116540451175403560200804662d000520b01017311ff531b521353155212531652115317521021005318511b2152
:401380001fa00f62d00068186e176e166e1578bff362d00051185402511754035116540451155405560103560000520911005208190052071900520631801980d02062d004
:4013c000005201531b5200531c511b01015401511c09005400511c60d5502d3f1b3d0c00b0313d0d00b02c3d0e00b0273d0f00b02262d0005201531b5200531c511b0101b3
:401400005401511c09005400511c60d550303f1b8036500008500a08520c08520d08520e08520f085200085201087c0eff38f8800677010f000062d0005201531b520060e3
:40144000d43e1b3900bfeb62d0005201531b5200531c511b01015401511c09005400511c60d5502e3f1b3d0200b0313d0300b02c3d0400b0273d0500b02262d00052015361
:401480001b5200531c511b01015401511c09005400511c60d550303f1b811462d00052011103531b52001900531c500f121b531b50001a1c531c161b011e1c00511b5415a1
:4014c00050073b15d00456150756140080a562d0005202531c5203531b5204531a5205531965196b1a6b1b6b1c52025318520353175204531652055315500362d000651527
:401500006b166b176b1878bff351150219540551160a1a540451170a1b540351180a1c54025201531b5200531c511b01015401511c0900540052025318520353175204533f
:401540001652055315501862d00068186e176e166e1578bff30615300e16000e17000e18005115531a511c60d5511a3f1b270200771452143b15cf570701ff0f00ff8007a6
:401580000701ff0f00ff62d0005201531b520060d43e1b3930b013520101ff531b520009ff60d43e1b392ebfd877010f000062d0005201531b520060d550003f1b551b0354
:4015c000551c0038ea207f0003000f001d023f80001f0019ff00303030303030303030303030303030303030303030303030303030303030303030303030303030303030b2
:4016000030303030303030303030303030303030303030303030303030303030303030303030303030303030303030303030303030303030303030303030303030303030aa
:40164000303030303030303030303030303030303030303030303030303030303030303030303030303030303030303030303030303030303030303030303030303030306a
:40168000303030303030303030303030303030303030303030303030303030303030303030303030303030303030303030303030303030303030303030303030303030302a
:4016c00030303030303030303030303030303030303030303030303030303030303030303030303030303030303030303030303030303030303030303030303030303030ea
:020000040010ea
:020000040020da
:0200000078fc8a
:00000001ff
