:4000000080673030303030307e3030307e3030307e3030307e3030307e3030307e3030307d067a7e7e3030307e3030307e3030307e3030307e3030307e3030307e30303088
:400040007e3030307e3030307e3030307e3030307e3030307e3030307e3030307e3030307e3030307d03c97e711062fa0062e38770ef50202850402850602862e33841fe4f
:40008000fb50804e62e33855f80055f900711062e00270ef62e338627105627505627905627d0562d10750004e62d30762d00062d50062d40071c07c035e62d0005002575a
:4000c000570828532b18750900284b512b800475090062e300082860d574a04b187509000828532b187509000828a01c532a1875090008283f2b472bffb0065dd57460d5f6
:40010000187a2abfeb8fc9187509000828532a50003f2b472bffb0085dd57460d550007a2abfef188faa18711070ef62e000711062e00043e78070ef62e2007c07ba8ffff8
:4001400050107f3030303030303030303030303030303030303030303030303030303030303030303030303030303030303030303030303030303030303030303030303030
:4001800030303030303030303030303030303030303030303030303030303030303030302020202020202020202020202020202000462020202020202020202020200080f9
:4001c000888100822083f490909100926093f0230021002201717e7221732070006028660063356500e600e742d600b000b100b200b333b433b500b600b855b900ba10bb65
:4002000033bc33bd00be00c000c100c220c333c433c500c600c855c900ca30cb33cc33cd00ce006c006d006e006f00ff20312115224061006900600062006733683363000c
:400240006600d100d300d000d200e14fe200dfffde02dd00e748ff153f70ef62000071106200006201ff70ef6203ff620200711062020062030070ef620100620400711083
:400280006204006205ff70ef6207ff620600711062060062070070ef620500620800711062087f62098070ef620b80620a007110620a00620b0070ef620900620c007110a1
:4002c000620c00620d0070ef620f00620e007110620e00620f0070ef620d00621000711062100062110070ef621300621200711062120062130070ef62110062140071105e
:4003000062140062150070ef621700621600711062160062170070ef621500621800711062180062190070ef621b00621a007110621a00621b0070ef621900621c0071109d
:40034000621c00621d0070ef621f00621e007110621e00621f0070ef621d0070ef7f55070055087f5509807c036e7c02597f1070ef500067500157bf7c03895001675002ea
:40038000572c7c038970ef207f380210084f56fc00d00456fc01182070ef62e30010082839ffa01f4f48fc01a003711054fd18207509001008284f59fd61001820750900cc
:4003c0008fd738fc703f71c07f2e00014702ffa0037a024701ffa0037a017606d00b7605d0077604d00376037e43e0407f41e0bf7f62d000500053005301530253065305ac
:40040000530453037f7f21184f0871105de021e72b0060e070ef18703f71c07f62d0005500004700ffaffc55000078bff67f62d0004b2101b0064702ffbffc4b53027f6228
:40044000d00051067f62d00053017f62d00051017f62d00041e0bf5106580543e0407f70bf41e0bf62d00060d308510354005104540151055402510654031843e040703fd4
:4004800071c07f21034f085d7321fc2b00607318703f71c07f21fc4f085d712107480004b00e4170fe2b00607118703f71c07f2700182b00607143700118703f71c07f4172
:4004c00073fc7f081028b00420187f9044201875dff2748fef303132333435363738394142434445460867676767210fffe7902118210fffe0901a7f4b9fea5b9fe77f701e
:40050000bf60d35200a0069008758ff8703f71c07f90650867676767210f903b18210f40404090337f90510867676767210f900918210f40404090017f0862d000260780b3
:400540005107600818210f29102a076008530740218f530760087f0862d0002607802e07205107600818210f29302a07600853074021af530760087f0862d00026078051fd
:400580000760082608f051087110600870ef2e074051076008401057ff2e07505107600840405d08082607c0510760084040402e07505107600840402607c0510760081809
:4005c0002108a00479bfd3202e087f51087110600870ef187f62d0002608802e087f2609805108711060085109600970ef50fa906750fa906350039f405052905b50039f3f
:400600003890639061905f50039f2e505a904950029f26505a904150089f0a505a903950019f02505a903150069efa500e9ef6502c9ef250089eee500c9eea50039ee650ce
:400640005a90157f80c094d4210310fff74f03ff209ed2703f71c07f900c78bffc7f08193a7c010101010871105de070ef21073905d006ffe978bffe187f7a0fc0027e3ca7
:400680001000b012085de5530d5de4530c18551001550fff7e438220438310439220439310085de5120d530d5de41a0c3940b00578550dff5f0b0d530a550e01183c110055
:4006c000b014551000550f004183ef4182df4193ef4192df7e7a11a014551000550f004183ef4182df4193ef4192df7e711041e73f43e78070ef41e1fe7e9013438220437b
:4007000083104392204393106221ff4323017f210308084f5d8321fc2dfe5d9321fc2dff186093186083703f71c07f41e1fe4183fc4193fc4123fe7f62d0004183ef418261
:40074000df4193ef4192df551000550f0053115d22b004622201711041e73f43e74070ef62dbfe43e1017f711041e73f43e78070ef41e1fe43822043831043922043931009
:400780007f62d000510e7f62d000550e00580a510b3c0e00bff57f62d000550e00510b7f62d000580a510b7f62d000510b7f62d000510e550e007f60227f71011050037c29
:4007c000048350037c06fa7c05d57c03f17c03e950187c04062062d000552c38552da6552e66552f661050007c073820820d62d00076350e340010570050017c042e201002
:400800007c07812062d0003900aff5107c078762d0005a2b2008512b62d0005344185345514562d000532862d000514462d0005329472980a009552aff552bff800a62d08d
:4008400000552a00552b0062d000512b08512a085129085128087c0e0c18532818532918532a1808512a0851290851280862d000512c08512d08512e08512f0862d0007c4b
:400880000c4a18532818532918532a1838fc08512a0851290851280850420850c808500008087c0c4a18532818532918532a18532b38fc503d08504c0850cc0850cd085107
:4008c0002b08512a085129085128087c0aed1862d000533318533218533118533038fc5000085038085130085131085132085133087c10f038fa62d000512a08512b62d0d1
:4009000000534018534190f610500057007c064862d00051400851415c187c04ff2062d00050420850c8085000080851300851310851320851330862d0007c0bed38f8397c
:4009400000a0483901a04462d0005041085020085000080851300851310851320851330862d0007c0bed38f83900a01f3901b01b10570450007c064850df7c051150010832
:4009800050b15c187c04c320805c62d00050420850c8085000080851300851310851320851330862d0007c0bed38f83900a01f3901b01b10570550007c064850df7c0511f3
:4009c00050010850b15c187c04c320801910570350007c064850df7c051150010850b15c187c04c32010570b50017c064862d0005134085135207c04f8208df38fff1050bf
:400a00000057007c064850010850a05c187c04c3570050017c064850010850a05c187c04c3207f104f38017c0d7438ff20703f71c07fd02052f9b006472101a01776210e83
:400a400022000e2300d00d762b3c2bffb006186a7d0aa3186b236a6e2b6e237d0a755000532b5323532253217f7c0a5e7a2b6e2368237d0a754f512b54f7512354f8512211
:400a800054f9512154fa18532b1860d020703f71c07f52fc532152fb532252fa532352f9532b7f7c0a5e552bff6e2b6e237d0a757c0a5e6e2b7d0a7552fa6a52f96ab0031e
:400ac000747f74a00450007f52fa642bfb2bfca00450047f50027f6cfa52f933f56cf96d71046ffa66f66cf571046ff67f104f5dd00862d000512b085b1104532b7c0ab8c2
:400b000053234d2b7c0ab84d2b53222a23a0343904c0047d0a692102a0192223b0094d2b7c0a927d0a752222aff752f933f5bfe48fef5123afeb2222afe552f923f56a7d76
:400b40000ab07c0ad7086a2180532352fc13f852fb1bf752fa1bf652f91bf5d0074d2b18322308512b087c0a922013f956f900a01a391ac0047d0a5370fb6ffa6ffb6ffc36
:400b80006ff9d0042ff90178bff118082140b02652fc042152fb0c2252fa0c23d04b3c2bfeb006186a7d0aa3762b6e232e23806e226e218036500013f954f952fc1c2152a8
:400bc000fb1c2252fa1c2352f92a212a222a23a00a472380b0137a2bb005187d0ab066f96b216b226b238fea66f97d0a32104f5dd00862d00052fa2bf66ac00852f92bf59b
:400c000064a03d52f9532333f5532227f57f52fc13f8532152fb1bf72c2152fa1bf62c2152f9217f1bf52a216e216b222900c007a00e512134236b235000c0037473735c37
:400c40001860d05b20703f71c07f104f5dd00862d000512b0852f933f5085b1104532b7c0ab853234d2b7c0ab84d2b53222a23a0153902a007c00a187d0a69186a7d0aa3e6
:400c8000186a7d0ab07c0ad752f903f5c007117fd0098fed117fc0038fe239ffafde0852fa642bfb2bfcb00e582b7c0a9218afd1532b7d0a5352f6642bf72bf8afed52fc7d
:400cc000532252f87c0def085f212352f77c0def022154f95f2b230e2b0052f67c0def042b5f21230e210052fb532252f87c0def05f91833f9a00350010851230c2b0e219e
:400d00000052f77c0def042b51230c2156f5000ff50052f67c0def042151230df552fa532252f87c0def042b182a2b54f951230c2150000df5532b0c2b52f77c0def04217e
:400d400051230df50e2b0052f67c0def03f55322512b0c2318472380b00b66f96b216b226b2380067439ffaf1321ffaf14532b66f97d0a325dd00862d000512b085000532e
:400d80002b53235322532156002066fc6cfb6cfa6cf96b216b226b236b2b51211bf851221bf751231bf6512b1bf5c011532b52f8142152f71c2252f61c2377fc7b00bfcbf3
:400dc000512154f8512254f7512354f6512b54f518532b1860d07f37fcff77fc37fbff0ffb0037faff0ffa0037f9ff0ff9007f532360e8512260e95dea472380a003022256
:400e0000472280a003022353235deb7f104f5dd00862d00052f953226ad0047c0dd755239652f9b0182bfa2bfb2bfca04248fa80b03266fc6cfb6cfa7a238ff2552100764e
:400e4000236d6ffa6ffb6ffc6e2121ffbff26b21d012b00648fc01a00b500077fc0dfb0dfa0c236cfa6b2251236d54f96ffa1860d020703f71c07f104f380b52f75402524b
:400e8000f8540352f9540452fa54053df700b0393df800b0343df900b02f3dfa00b02a62d00052fc532a52fb60d550303f2a52fc0101532a52fb090060d550003f2a52fc78
:400ec000532a52fb532b822552fa110052f9190052f8190052f731801980d03b3df500b0363df60ab03156080162d000520273532b520373532a52047353295205730101df
:400f00005405512909005404512a09005403512b09005402800456080052fc540152fb540062d00052f6532852f55329472980a009552aff552bff800a62d000552a0055c3
:400f40002b0062d000512b08512a085129085128085202085203085204085205087c0a2338fc18532818532918185128532a5129532b512a540a512b54095009130a5209ef
:400f80003180532350801a23c02862d0005201532a5200532b512a01015401512b09005400520a01305329512b60d551293f2a802662d0005201532a5200532b512a010106
:400fc0005401512b09005400520a01575329512b60d551293f2a62d00052f6532852f55329472980a009552aff552bff800a62d000552a00552b0062d000512b08512a08bd
:401000005129085128085202085203085204085205087c0a2318540518540418540318540238fc3d0200befa3d0300bef53d0400bef03d0500beeb3d0800a02062d000524f
:4010400001532a5200532b512a01015401512b09005400512b60d5502d3f2a62d0005201532a5200532b512a01ff5401512b09ff5400512b60d550003f2a52fc540752fb06
:401080005406805462d0005207532a520660d43e2a54085207532a5206532b512a01015407512b0900540652015328520060d43e285329512b60d551293f2a5201532a525b
:4010c00000532b512a01ff5401512b09ff5400512b60d552083f2a5207130152061b00cfa462d00052fc532a52fb532b38f5207f104f381662d00052f8532a52f760d550fb
:40110000003f2a3f2a0808080852f90852fa0852fb0852fc087c0bed38f83900b01b62d00055123055132e55143055150062d000552a12552b00840452f9540652fa54074a
:4011400052fb540852fc540962d0005206532b5207532a5208532952095328501762d000682b6e2a6e296e2878bff35128117f540b50001900540a52095328520853295249
:4011800007532a52062100532b5128541351295412512a29805411512b5410560200560300560400560500560c00560d00560e00560f00520b111f520a31801980c01c6226
:4011c000d00052f8532a52f760d550ff3f2a50fe3f2a552a00552b008362520b11e9520a3180197fd01a62d00052f8532a52f760d550ff3f2a3f2a552a00552b00833d52f8
:401200000b1117520a31801980c04362d000520b1117532a52105327521153265212532552135324512a211fa00f62d00065246b256b266b2778bff362d0005127540c51d1
:4012400026540d5125540e5124540f80d0520b1100520a31801980c07f62d0005017130b532a52105327521153265212532552135324512a211fa00f62d00068276e266ec3
:40128000256e2478bff362d0005127540c5126540d5125540e5124540f520b0101532a52105327521153265212532552135324512a211fa00f62d00065246b256b266b2797
:4012c00078bff362d000512454055125540451265403560200804662d000520b01017311ff532a521353245212532552115326521021005327512a211fa00f62d0006827bd
:401300006e266e256e2478bff362d00051275402512654035125540451245405560112560000520911005208190052071900520631801980d02062d0005201532a52005317
:401340002b512a01015401512b09005400512b60d5502d3f2a3d0c00b0313d0d00b02c3d0e00b0273d0f00b02262d0005201532a5200532b512a01015401512b09005400f3
:40138000512b60d550303f2a8036500008500a08520c08520d08520e08520f085200085201087c0e7738f8800677010f000062d0005201532a520060d43e2a3900bfeb625d
:4013c000d0005201532a5200532b512a01015401512b09005400512b60d5502e3f2a3d0200b0313d0300b02c3d0400b0273d0500b02262d0005201532a5200532b512a0184
:40140000015401512b09005400512b60d550303f2a811462d00052011112532a52001900532b500f122a532a50001a2b532b162a011e2b00512a541550073b15d0045615c1
:401440000756140080a562d0005202532b5203532a520453295205532865286b296b2a6b2b52025327520353265204532552055324500362d00065246b256b266b2778bfe0
:40148000f351240228540551250a29540451260a2a540351270a2b54025201532a5200532b512a01015401512b0900540052025327520353265204532552055324501862ee
:4014c000d00068276e266e256e2478bff30624300e25000e26000e270051245329512b60d551293f2a270200771452143b15cf570701ff0f00ff80070701ff0f00ff62d0bc
:40150000005201532a520060d43e2a3930b013520101ff532a520009ff60d43e2a392ebfd877010f000062d0005201532a520060d550003f2a552a12552b0038ea207f0062
:4015400012000f002c001cff0030303030303030303030303030303030303030303030303030303030303030303030303030303030303030303030303030303030303030b3
:40158000303030303030303030303030303030303030303030303030303030303030303030303030303030303030303030303030303030303030303030303030303030302b
:4015c00030303030303030303030303030303030303030303030303030303030303030303030303030303030303030303030303030303030303030303030303030303030eb
:4016000030303030303030303030303030303030303030303030303030303030303030303030303030303030303030303030303030303030303030303030303030303030aa
:40164000303030303030303030303030303030303030303030303030303030303030303030303030303030303030303030303030303030303030303030303030303030306a
:020000040010ea
:020000040020da
:02000000b0222c
:00000001ff
